:100000000C94D0000C94F8000C94F8000C94C70BDE
:100010000C94EB0B0C940F0C0C94F8000C94F8005F
:100020000C94F8000C94F8000C94F8000C94F80070
:100030000C94F8000C94F8000C94F8000C94F80060
:100040000C94F3120C94F8000C94B90E0C94070F56
:100050000C94F8000C94F8000C94F8000C94F80040
:100060000C94F8000C94F80000C20100010011008B
:1000700011000C0000E100000A002500250021000D
:10008000009600001900390039003600127A00008D
:100090001F004600460044008070000022004D0012
:1000A0004D004A00004B00003600750075007200DC
:1000B000403800004A009C009C0099008025000008
:1000C0007200EC00EC00E900C0120000E900DA0167
:1000D000DA01D70160090000D701B603B603B30304
:1000E000B0040000B3036E076E076B0758020000F0
:1000F0006E07DC0EDC0ED80E2C010000DC0EC11DDC
:10010000C11DBE1D00000000240027002A000000C1
:100110000000250028002B0000000000230026001E
:10012000290004040404040404040202020202027A
:1001300003030303030301020408102040800102AB
:10014000040810200102040810200000000700022B
:100150000100000304060000000000000000494EFA
:1001600046494E4954594E414ECDCCCC3D0AD72339
:100170003C17B7D13877CC2B329595E6241FB14F79
:100180000A000020410000C84200401C4620BCBEBE
:100190004CCA1B0E5AAEC59D7400810673107A06B8
:1001A00011241FBECFEFD8E0DEBFCDBF11E0A0E02D
:1001B000B1E0E8E3F1E302C005900D92A435B10788
:1001C000D9F713E0A4E5B1E001C01D92A03DB1074D
:1001D000E1F711E0CEE9D1E004C02297FE010E94D0
:1001E0004918CA39D107C9F70E94C9100C948F1851
:1001F0000C940000CF93DF93BC018230910510F482
:1002000062E070E0A091CC03B091CD03ED01E0E09D
:10021000F0E040E050E021C088819981861797077F
:1002200069F48A819B81309719F09383828304C09B
:100230009093CD038093CC03FE0134C068177907F7
:1002400038F44115510519F08417950708F4AC01ED
:10025000FE018A819B819C01E9012097E9F6411505
:100260005105A9F1CA01861B970B049708F4BA013E
:10027000E0E0F0E02AC08D919C91119784179507DA
:10028000F9F46417750781F412968D919C91139778
:10029000309719F09383828304C09093CD038093A9
:1002A000CC03FD0132964CC0CA01861B970BFD01A1
:1002B000E80FF91F6193719302978D939C9340C04F
:1002C000FD01828193819C01D9011097A1F6809153
:1002D000CA039091CB03892B41F480912F01909117
:1002E00030019093CB038093CA0340913101509128
:1002F00032014115510541F44DB75EB780912D0192
:1003000090912E01481B590B2091CA033091CB03C9
:10031000CA01821B930B8617970780F0AB014E5FD3
:100320005F4F8417950750F0420F531F5093CB0334
:100330004093CA03F9016193719302C0E0E0F0E0D9
:10034000CF01DF91CF910895CF93DF93009709F408
:1003500050C0EC0122971B821A82A091CC03B0916D
:10036000CD03109709F140E050E0AC17BD0708F14C
:10037000BB83AA83FE0121913191E20FF31FAE17D7
:10038000BF0779F48D919C911197280F391F2E5F2B
:100390003F4F3983288312968D919C9113979B83AD
:1003A0008A834115510571F4D093CD03C093CC03DA
:1003B00020C012968D919C911397AD01009711F07A
:1003C000DC01D3CFFA01D383C28321913191E20FB3
:1003D000F31FCE17DF0769F488819981280F391F31
:1003E0002E5F3F4FFA01318320838A819B81938363
:1003F0008283DF91CF910895A0E0B0E0E2E0F2E0E7
:100400000C945A186C01009729F4CB010E94FA0051
:100410006C01C1C08EEF882E8FEF982E8C0C9D1C26
:100420008601060F171F0815190508F4B2C0F4015C
:10043000A081B181A617B707B8F0A530B10508F4BF
:10044000AAC0CD0104978617970708F4A4C0129795
:10045000A61BB70BF801A193B193D4016D937C93C4
:10046000CF010E94A40197C07B01EA1AFB0AEEEFBC
:10047000FFEFEE0EFF1E36016A0E7B1EC091CC030D
:10048000D091CD0344245524AA24BB244AC0C615C8
:10049000D705E1F5488159814E155F05B8F1CA01CC
:1004A00004978E159F05B0F41296A40FB51FF401A2
:1004B000B183A0832A813B814114510431F0D201E0
:1004C00013963C932E93129766C03093CD032093DE
:1004D000CC0361C08A819B81F8019383828342505F
:1004E00050404E195F09518340834114510431F04B
:1004F000D20113961C930E93129704C01093CD0350
:100500000093CC03F4017183608345C08881998195
:10051000A816B90608F45C012E018A819B819C0112
:10052000E901209709F0B3CF8091CA039091CB03E2
:1005300086159705E9F4A616B706D0F42091310187
:10054000309132012115310541F42DB73EB780912C
:100550002D0190912E01281B390B02171307C8F4A7
:100560001093CB030093CA03D4016D937C9313C003
:10057000CB010E94FA00EC01009759F0F401408190
:100580005181B6010E94F302C6010E94A4016E01CE
:1005900002C0CC24DD24C601CDB7DEB7E0E10C9467
:1005A0007618662777270C941A03FC018827992769
:1005B000E89421912032E9F3293010F02E30C8F36D
:1005C0002B3241F02D3239F4689404C00E9412039A
:1005D000820F911D219120532A30C0F31EF4909573
:1005E00081959F4F0895FB01DC0102C001900D929F
:1005F00041505040D8F70895FB01DC0101900D9265
:100600000020E1F70895FB01DC014150504048F023
:1006100001900D920020C9F701C01D924150504039
:10062000E0F708957AE0979F902D879F802D910D98
:1006300011240895A0E0B0E0E0E2F3E00C945E182D
:10064000EC015B016115710519F0FB019183808359
:10065000F9908F2D90E00E944D18892BC9F7FDE28B
:10066000FF1621F4F990EE24E39405C02BE2F21674
:1006700009F4F990EE248E0101501040C8016EE596
:1006800071E043E050E00E947A04892B01F58E016D
:100690000E5F1F4FC80161E671E045E050E00E9427
:1006A0007A04892B19F48E01095F1F4FA114B1043C
:1006B00019F0F50111830083E0FC04C070E090E0C4
:1006C00080E814C070E090E080E86FEF08C1C801D6
:1006D00066E671E043E050E00E947A04892B69F4F9
:1006E000A114B10429F470E090E080EC6FE7F7C04A
:1006F0002296F501D183C083F6CF8824992440E067
:1007000050E060E070E0EF2DE053EA30A0F5F2E059
:10071000EF2A8E2D90E09C0128703070E2FE06C01A
:10072000232B79F50894811C911C2BC0232B19F0E5
:10073000089481089108DB01CA0112E0880F991F13
:10074000AA1FBB1F1A95D1F7480F591F6A1F7B1F9D
:10075000440F551F661F771F4E0F511D611D711DE0
:10076000483929E9520729E9620729E1720748F067
:1007700084E0E82A06C0EE3F31F4E3FC39C098E09B
:10078000E92AF990C0CFE53311F0E53189F52991D7
:100790002D3219F4E0E1EE2A05C02B3219F081E088
:1007A00090E003C0299182E090E0E22FE053EA302C
:1007B00018F0C81BD90B1CC020E030E0FCE020384A
:1007C0003F075CF4C901880F991F880F991F280FF4
:1007D000391F220F331F2E0F311DE991E053EA30EC
:1007E00068F3E4FE03C0309521953F4F820E931EBF
:1007F000CE2CDD24E1FE07C0A114B10421F0219725
:10080000F501D183C083CB01BA010E94C2167B01DE
:100810008C01F3E0CF22DD2423E0C216D10421F4C1
:1008200017FB109517F9109557016801C801B7011A
:1008300020E030E040E050E00E942516882309F4D3
:100840004AC097FE0DC02DE7E22E21E0F22E9094D3
:10085000819491089394C0E2D0E000E010E012C0CF
:1008600095E9E92E91E0F92EF6CFF7012591359122
:1008700045915491C601B5010E9478175B016C0146
:100880008C1A9D0A8C169D0684F7D595C7950F5F27
:100890001F4F0630110529F08CEF9FEFE80EF91E6F
:1008A000F1CFC501D6017C018D018C2D880F8D2DD6
:1008B000881F8F3F51F0C601B50120E030E040E0D5
:1008C00050E00E942516882331F482E290E0909354
:1008D000CF038093CE037E2D9F2D802F612F272F56
:1008E000392F482F562FB901CA01CDB7DEB7ECE03A
:1008F0000C947A18FB01DC014150504088F08D9136
:1009000081341CF08B350CF4805E659161341CF0F1
:100910006B350CF4605E861B611171F3990B0895C1
:10092000881BFCCFFC0117AA16AA1586148611AEE7
:1009300010AE81E090E093AF82AF80E094E2A4E754
:10094000B9EC80879187A287B38780E094E2A4E71F
:10095000B9E484839583A683B78380E090E0A0E028
:10096000B0E080839183A283B38308952F923F9256
:100970004F925F926F927F928F929F92AF92BF92AF
:10098000CF92DF92EF92FF920F931F93DF93CF935B
:10099000CDB7DEB728970FB6F894DEBF0FBECDBF38
:1009A00098878F838C01222433240F2EF0E04F2E62
:1009B000F0E05F2EF0E06F2EF0E07F2EF02D66C0AD
:1009C000F801C684D784E088F188EF81F8858084B7
:1009D0009184A284B384C701B6019401A5010E9449
:1009E0007417181624F4D701C60146015D01C4012D
:1009F000D501EF81F88580879187A287B387F801B9
:100A000086849784A088B188EF81F885F481FB8380
:100A1000EF81F885F581FC83EF81F885F681FD8310
:100A2000EF81F885F781FE83B401C5012B813C81FC
:100A30004D815F2F0E94251687FD04C08B809C800E
:100A4000AD80BE8029813A81B901882777FD8095E4
:100A5000982F0E94C4169B01AC01C701B6010E94E9
:100A600029169B01AC01C301B2010E94C1152B01E3
:100A70003C01C401D501EF81F88584839583A68369
:100A8000B7830894211C311C0C5F1F4FEF81F88540
:100A90000484F585E02DFA83E9832E163F060CF4D5
:100AA0008FCFEF81F88540825182628273822896CF
:100AB0000FB6F894DEBF0FBECDBFCF91DF911F916F
:100AC0000F91FF90EF90DF90CF90BF90AF909F90ED
:100AD0008F907F906F905F904F903F902F900895F0
:100AE0006F927F928F929F92AF92BF92CF92DF923E
:100AF000EF92FF920F931F93CF93DF93EC013A0194
:100B00004B018C859D858A3091051CF401969D874B
:100B10008C8780E094E2A4E7B9EC88879987AA875C
:100B2000BB8780E094E2A4E7B9E48C839D83AE8325
:100B3000BF838AAD9BAD892B71F5A880B980CA802F
:100B4000DB80EEA9FFA9EE0FFF1FEE0FFF1FEC0FDA
:100B5000FD1F6685778580899189A60195010E9490
:100B6000C0157B018C016C857D85882777FD80957C
:100B7000982F0E94C4169B01AC01C801B7010E94C6
:100B800029169B01AC01C601B5010E94C0156883FE
:100B900079838A839B83A880B980CA80DB80C40163
:100BA000B301A60195010E94C0157B018C016C85E3
:100BB0007D85882777FD8095982F0E94C4169B011C
:100BC000AC01C801B7010E9429169B01AC01C60106
:100BD000B5010E94C115688379838A839B83EEA93E
:100BE000FFA9EE0FFF1FEE0FFF1FEC0FFD1F668624
:100BF0007786808A918ACE010E94B6048EA99FA929
:100C00008930910529F41BAE1AAE80E090E001C056
:100C100001969FAB8EABDF91CF911F910F91FF900B
:100C2000EF90DF90CF90BF90AF909F908F907F908C
:100C30006F900895109267021092700281E0809385
:100C400093021092790210928202109294021092F2
:100C5000950210929602109297021092C50210927D
:100C6000C40280E090E0A0E0B0E08093C6029093E0
:100C7000C702A093C802B093C902109261021092F9
:100C8000620210926302109264021092C0021092EB
:100C9000C1021092C2021092C3028093BC029093D0
:100CA000BD02A093BE02B093BF02089581309105AA
:100CB000B9F46F5F7F4FE9F485E591E00E949204FB
:100CC00085EA91E00E94920485EF91E00E949204EF
:100CD00085E492E064E04AE020E00E948A0E0895F4
:100CE000892B39F46F5F7F4F21F485E492E00E94F5
:100CF000110D089580E090E06FEF7FEF0E9456069F
:100D0000089581E090E06FEF7FEF0E94560608950E
:100D1000EF92FF920F931F938091CA029091CB02A2
:100D2000A091CC02B091CD020097A105B10551F47C
:100D30000E943B136093CA027093CB028093CC0253
:100D40009093CD020E943B137B018C018091CA02DB
:100D50009091CB02A091CC02B091CD02E816F90699
:100D60000A071B0738F0A8019701281B390B4A0B0B
:100D70005B0B0AC09C01AD012095309540955095C4
:100D80002E0D3F1D401F511F809179028130A9F423
:100D900080917A0290917B02A0917C02B0917D02B9
:100DA000820F931FA41FB51F80937A0290937B023A
:100DB000A0937C02B0937D0214C080917E0290913A
:100DC0007F02A0918002B0918102820F931FA41F25
:100DD000B51F80937E0290937F02A0938002B09310
:100DE0008102809182028130A9F4809183029091E6
:100DF0008402A0918502B0918602820F931FA41FE6
:100E0000B51F8093830290938402A0938502B093D0
:100E1000860214C08091870290918802A091890275
:100E2000B0918A02820F931FA41FB51F809387027F
:100E300090938802A0938902B0938A0280916702FE
:100E40008130A9F48091680290916902A0916A02B0
:100E5000B0916B02820F931FA41FB51F809368028D
:100E600090936902A0936A02B0936B0214C08091C0
:100E70006C0290916D02A0916E02B0916F02820F90
:100E8000931FA41FB51F80936C0290936D02A093D3
:100E90006E02B0936F02809170028130A9F480914C
:100EA000710290917202A0917302B0917402820F4C
:100EB000931FA41FB51F8093710290937202A09399
:100EC0007302B093740214C08091750290917602FF
:100ED000A0917702B0917802820F931FA41FB51FD3
:100EE0008093750290937602A0937702B093780274
:100EF000E092CA02F092CB020093CC021093CD0292
:100F0000E0908F02F0909002009191021091920275
:100F10000E943B136E157F058007910738F09B01F7
:100F2000AC012E193F09400B510B0AC0A8019701D3
:100F30002095309540955095260F371F481F591F13
:100F400020938B0230938C0240938D0250938E023B
:100F50001F910F91FF90EF900895EF92FF920F93E2
:100F60001F938091B1019091B201181619060CF0EF
:100F700054C06091F5017091F6018091F701909154
:100F8000F80120E030E040E050E00E942516882380
:100F900019F089E267E206C0882311F48AE201C0F1
:100FA00089E268E2109170021123B9F4772767FD96
:100FB0007095872F972F0E94C4169B01AC016091FA
:100FC000A5017091A6018091A7019091A8010E94AE
:100FD000251618160CF486C01CC0682F772767FDED
:100FE0007095872F972F0E94C4169B01AC016091CA
:100FF000A5017091A6018091A7019091A8010E947E
:10100000741788230CF46EC0113019F4109270021A
:1010100069C081E08093700265C090918202913036
:10102000C1F4809170028823A1F4909370020E9411
:101030003B13609398027093990280939A02909365
:101040009B0210929C0210929D0210929E0210929E
:101050009F0280918202882309F044C0809170022F
:10106000813009F03FC0E0909802F0909902009121
:101070009A0210919B020E943B136E157F05800718
:10108000910738F09B01AC012E193F09400B510B21
:101090000AC0A80197012095309540955095260FDC
:1010A000371F481F591F20939C0230939D02409385
:1010B0009E0250939F0221583F444241504090F07D
:1010C00010927002109298021092990210929A0255
:1010D00010929B0210929C0210929D0210929E020E
:1010E00010929F0280917902813019F480936702F7
:1010F00002C0109267021F910F91FF90EF90089528
:10110000109268021092690210926A0210926B02A9
:1011100010926C0210926D0210926E0210926F0289
:101120001092710210927202109273021092740265
:101130001092750210927602109277021092780245
:1011400010927A0210927B0210927C0210927D0221
:1011500010927E0210927F02109280021092810201
:1011600010928302109284021092850210928602DD
:1011700010928702109288021092890210928A02BD
:101180001092940210929502109296021092970279
:101190000E943B1360938F027093900280939102A0
:1011A000909392020895EF92FF920F931F93809174
:1011B000D2028823A9F1E090CE02F090CF020091F4
:1011C000D0021091D1020E943B136E157F0580075B
:1011D000910738F09B01AC012E193F09400B510BD0
:1011E0000AC0A80197012095309540955095260F8B
:1011F000371F481F591F215137424040504008F4C3
:1012000042C01092A0021092A1021092A20210926B
:10121000A30287E061E00E9415141092D20233C04D
:101220008091A0029091A102A091A202B091A3028C
:101230000097A105B10519F1809194029091950252
:10124000A0919602B09197020196A11DB11D8093C5
:10125000940290939502A0939602B093970281E036
:101260008093D2020E943B136093CE027093CF0210
:101270008093D0029093D10287E060E002C087E0C3
:1012800061E00E9415141F910F91FF90EF90089557
:1012900085E0609167020E94151486E060917002FB
:1012A0000E9415140E94D308089585E061E00E9411
:1012B000A91386E061E00E94A91383E060E00E9428
:1012C000A91387E061E00E94A91382E060E00E9418
:1012D000A91308958FE993E040E855E260E070E0DB
:1012E0000E94420F85E492E040E855E260E070E041
:1012F0000E94330C109254010E9455090E941A0654
:101300000E94800883E00E94841308956F927F9268
:101310008F929F92AF92BF92CF92DF92EF92FF9205
:101320000F931F93DF93CF93CDB7DEB769970FB6B7
:10133000F894DEBF0FBECDBF8E010F5F1F4FC801F7
:1013400060E071E00E945F15C80160E071E00E94FA
:101350007915FF24CC24DD24198E78E0872E912C7A
:101360008C0E9D1EE02E012F6FE0A62EB12CAC0E30
:10137000BD1E59E1652E712C6C0E7D1EB1C085E439
:1013800092E00E941A0D182F8FE993E0612F0E94BE
:1013900002111C3209F459C01B3339F01D3009F019
:1013A00055C0898D813009F051C08E2D902FB50127
:1013B0004AE050E020E030E00E94781489E0C8164E
:1013C000D104E9F41092A0021092A1021092A2029C
:1013D0001092A302F50180E090E0A0E0B0E00BC025
:1013E000263421F481E090E0A0E0B0E03196E615EB
:1013F000F70509F497C02081222391F793C088E074
:10140000C816D10461F4C5010E94D1026093BC02E8
:101410007093BD028093BE029093BF020AC0C501C3
:101420000E94D502F601EE0FFF1FEC55FD4F918390
:1014300080838E2D902F60E071E00E9479150894D2
:10144000C11CD11C81E0898F12C01EE2C4016E2D27
:10145000702F0E94A915C401612F0E942D15BC0197
:101460008E2D902F0E949215C4010E94BA158BE018
:10147000C816D10449F56091B0027091B102882775
:1014800077FD8095982F0E94C416AB01BC0185EAB8
:1014900091E00E9470054091BC025091BD026091A4
:1014A000BE027091BF0285EF91E00E9470050E941C
:1014B0003B136093C0027093C1028093C202909369
:1014C000C302FF24F3940CC0C114D10441F0109264
:1014D000C0021092C1021092C2021092C302FF24F5
:1014E00085E492E00E943B0D181619060CF447CFD4
:1014F000CE0101960E94B4158F2D69960FB6F8940F
:10150000DEBF0FBECDBFCF91DF911F910F91FF9036
:10151000EF90DF90CF90BF90AF909F908F907F9093
:101520006F9008958093A0029093A102A093A202CD
:10153000B093A30274CFEF92FF920F931F9383E0B7
:101540000E9448148093790282E00E94481480939C
:101550008202E0906102F0906202009163021091B9
:101560006402E114F10401051105E9F00E943B1346
:101570006E157F058007910738F09B01AC012E198D
:101580003F09400B510B0AC0A801970120953095E7
:1015900040955095260F371F481F591F205137423D
:1015A00040405040B8F10E943B1360936102709339
:1015B0006202809363029093640280E00E9487132A
:1015C0009093C5028093C402AA2797FDA095BA2FD5
:1015D000BC01CD010E94C41623EA35EB48E05BE371
:1015E0000E9478172AE037ED43E25CE30E94291657
:1015F0009B01AC01CB01DA018093C6029093C70234
:10160000A093C802B093C90285E591E0A901BD018C
:101610000E947005809154018823A1F08FE993E026
:1016200061E071E00E94F91140915501509156011D
:1016300060915701709158018FE993E022E030E00A
:101640000E94E0120E9486091F910F91FF90EF9077
:1016500008950E943B1370936602609365020E9496
:101660009B0A0E94AD070E9448090E9488060895BF
:10167000FC018091D3029091D4028E179F0711F440
:1016800080E00895838D8E7F838F9FB7F8941092AA
:1016900015038091150380931603F093D402E09311
:1016A000D3029FBF81E008950F931F93CF93DF93E1
:1016B000FC01838DA685B7859585082F027081FF73
:1016C00005C08C91892309F454C004C08C918923EE
:1016D00009F04FC08389948920E001972FEF8F3F55
:1016E0009207D9F7C589D689A685B785758560E043
:1016F00031E040E050E010E0CE01212F01972FEFC4
:101700008F3F9207D9F78C91872311F0632B03C089
:10171000832F80956823330F4F5F5F4F483051050B
:1017200059F78789908D20E001972FEF8F3F92071F
:10173000D9F701116095809115032091160390E06F
:1017400001968F73907030E08217930779F0E091E3
:101750001503F0E0EB52FD4F60838091150390E09C
:1017600001968F7390708093150303C0838D816001
:10177000838FDF91CF911F910F9108958091D302B4
:101780009091D402009711F00E94540B08951F927B
:101790000F920FB60F9211242F933F934F935F93A5
:1017A0006F937F938F939F93AF93BF93EF93FF9329
:1017B0000E94BE0BFF91EF91BF91AF919F918F91CE
:1017C0007F916F915F914F913F912F910F900FBE3D
:1017D0000F901F9018951F920F920FB60F92112421
:1017E0002F933F934F935F936F937F938F939F9329
:1017F000AF93BF93EF93FF930E94BE0BFF91EF91C6
:10180000BF91AF919F918F917F916F915F914F9118
:101810003F912F910F900FBE0F901F9018951F9220
:101820000F920FB60F9211242F933F934F935F9314
:101830006F937F938F939F93AF93BF93EF93FF9398
:101840000E94BE0BFF91EF91BF91AF919F918F913D
:101850007F916F915F914F913F912F910F900FBEAC
:101860000F901F901895CF92DF92EF92FF920F93F7
:101870001F93CF93DF93EC017A018B011A8E198E9F
:10188000188E1F8A1E8A1D8A1C8A1B8A20E030E05F
:101890006901CC0CDD1CC20ED31EB601660F771F8A
:1018A000660F771FAB0148595F4FFA0185919591FB
:1018B000A591B4918E159F05A007B107E9F4FB012E
:1018C000E459FF4F859194919C8B8B8BFB01E259DE
:1018D000FF4F859194919E8B8D8BFB01E059FF4FBB
:1018E00085919491988F8F8BFB01EE58FF4F8591D6
:1018F00094919A8F898F06C02F5F3F4F2D3031050D
:1019000009F0C6CF8F89988D892B09F449C04C8581
:10191000463108F03DC090916800483010F484E0F2
:1019200005C04E3010F082E001C081E0892B809329
:101930006800483028F4EDE6F0E0ADE6B0E00BC01A
:101940004E3028F0ECE6F0E0ACE6B0E004C0EBE6A8
:10195000F0E0ABE6B0E05081483040F481E090E048
:1019600002C0880F991F4A95E2F710C0242F30E07B
:101970004E3018F42850304002C02E50304081E0E4
:1019800090E002C0880F991F2A95E2F7852B8C936F
:10199000898D9A8D20E001972FEF8F3F9207D9F71D
:1019A000CE010E94380BDF91CF911F910F91FF90D4
:1019B000EF90DF90CF900895FC014485463180F58B
:1019C000483028F4EDE6F0E0ADE6B0E00BC04E3074
:1019D00028F4EBE6F0E0ABE6B0E004C0ECE6F0E0C3
:1019E000ACE6B0E05081483040F481E090E002C0C5
:1019F000880F991F4A95E2F710C0242F30E04E302F
:101A000018F42850304002C02E50304081E090E061
:101A100002C0880F991F2A95E2F7809585238C9341
:101A20000895FC0188E391E091838083CF010E94B7
:101A3000DC0C08952091D3023091D4022817390785
:101A400031F49091160380911503981719F42FEF34
:101A50003FEF0FC0E0911603F0E0EB52FD4F208105
:101A60008091160390E001968F7390708093160317
:101A700030E0C90108952091D3023091D402281793
:101A8000390719F020E030E00EC080911503209155
:101A9000160390E0805C9F4F821B910960E470E028
:101AA0000E94FE179C01C90108950F931F93DC014A
:101AB00059968D919C915A97892B49F481E090E039
:101AC00013969C938E93129720E030E097C00FB747
:101AD000F8945B968C915B975196ED91FC9152979F
:101AE00050962C91509781FF8DC08081822B8083EE
:101AF00059968D919C915A97059620E001972FEF6A
:101B00008F3F9207D9F75B968C915B9781FF35C029
:101B100031E040E050E070E010E0832F90E0862359
:101B200097235196ED91FC91529750962C91509796
:101B3000892B29F0808120952823208303C0808170
:101B4000822B808359968D919C915A97212F0197D2
:101B50002FEF8F3F9207D9F7330F4F5F5F4F48301A
:101B60005105D9F65196ED91FC915297908150967E
:101B70008C9150978095892333C031E040E050E04C
:101B800070E010E0832F90E0862397235196ED912B
:101B9000FC91529750962C915097892B21F080817F
:101BA000822B808304C0808120952823208359962E
:101BB0008D919C915A97212F01972FEF8F3F92077C
:101BC000D9F7330F4F5F5F4F48305105D9F6519623
:101BD000ED91FC915297808150969C915097892B62
:101BE00080830FBF59968D919C915A9720E0019761
:101BF0002FEF8F3F9207D9F721E030E0C9011F9105
:101C00000F910895808120952823208371CF209102
:101C1000D3023091D4022817390749F49FB7F894BA
:101C20001092150380911503809316039FBF0895AA
:101C30002091D3023091D4022817390731F49091C2
:101C4000160380911503981719F42FEF3FEF0AC080
:101C5000E0911603F0E0EB52FD4F8081282F3327EF
:101C600027FD3095C90108951F93CF93DF93EC01B1
:101C7000162F862F60E00E94A9138B8D81FD04C072
:101C8000812F61E00E9415141C87212F30E0C901CB
:101C90008A5C9E4FFC0184918D872E5D3E4FF90139
:101CA0006491E62FF0E0EE0FFF1FE85EFE4F859196
:101CB00094919F878E87DF91CF911F910895FF9216
:101CC0000F931F938C01F62E862F61E00E94A913BB
:101CD0008F2D61E00E9415148F2D90E0FC01EA5CCD
:101CE000FE4FE491D8015096EC9350978E5D9E4F35
:101CF000FC016491E62FF0E0EE0FFF1FE25FFE4F64
:101D00008591949152969C938E9351971F910F9128
:101D1000FF900895FF920F931F938C01F62EFC0104
:101D20001382128288EE93E0A0E0B0E08483958372
:101D3000A683B78388E391E091838083148A138A12
:101D4000168A158A108E178A128E118E838D217035
:101D5000220F8C7F822B838FC801642F0E945F0E1D
:101D6000C8016F2D0E94340E1F910F91FF900895AE
:101D700008951F920F920FB60F9211242F933F9345
:101D80004F938F939F93EF93FF938091C00082FDB9
:101D90001DC04091C60020915703309158032F5F1A
:101DA0003F4F2F7330708091590390915A03281739
:101DB000390771F0E0915703F0915803E95EFC4F49
:101DC0004083309358032093570302C08091C6008C
:101DD000FF91EF919F918F914F913F912F910F9094
:101DE0000FBE0F901F901895E091AB03F091AC03DC
:101DF000E05CFF4F8191919120813181821B930B97
:101E00008F739070892B11F00E94B80E08951F9265
:101E10000F920FB60F9211242F933F938F939F939E
:101E2000EF93FF9320919B0330919C0380919D033E
:101E300090919E032817390731F48091C1008F7D5E
:101E40008093C10014C0E0919D03F0919E03E55A78
:101E5000FC4F208180919D0390919E0301968F738A
:101E6000907090939E0380939D032093C600FF91F2
:101E7000EF919F918F913F912F910F900FBE0F90F7
:101E80001F901895AF92BF92DF92EF92FF920F933F
:101E90001F93CF93DF93EC017A018B01DD24403057
:101EA00081EE580780E0680780E0780711F0DD24B4
:101EB000D39491E0A92EB12CEC89FD89DD2069F045
:101EC000C50108A002C0880F991F0A94E2F7808319
:101ED00060E079E08DE390E005C0108260E874E88E
:101EE0008EE190E0A80197010E9411182150304026
:101EF00040405040569547953795279580E12030D2
:101F0000380720F0DD2011F0DD24D6CFE889F989EB
:101F10003083EA89FB89208319A2EE89FF894081F9
:101F200021E030E0C9010C8C02C0880F991F0A948F
:101F3000E2F7482B4083EE89FF894081C9010D8C6F
:101F400002C0880F991F0A94E2F7482B4083EE895C
:101F5000FF894081C9010E8C02C0880F991F0A9425
:101F6000E2F7482B4083EE89FF8980810F8C02C005
:101F7000220F331F0A94E2F7209528232083DF9154
:101F8000CF911F910F91FF90EF90DF90BF90AF9096
:101F90000895DC011C96ED91FC911D97E05CFF4FCC
:101FA0002191319180819181281B390B2F733070E1
:101FB000C9010895DC011C96ED91FC911D97E05C30
:101FC000FF4F20813181E054F040DF01AE5BBF4F15
:101FD0008D919C9111972817390719F42FEF3FEF36
:101FE00007C08D919C91E80FF91F8081282F30E068
:101FF000C9010895DC011C96ED91FC911D97E05CF0
:10200000FF4F20813181E054F040DF01AE5BBF4FD4
:102010008D919C9111972817390719F42FEF3FEFF5
:1020200010C08D919C911197E80FF91F20818D911F
:102030009C91119701968F73907011969C938E933B
:1020400030E0C9010895DC0191968C919197882325
:1020500039F05496ED91FC915597808186FFF9CF28
:1020600091961C920895CF93DF93EC01EE85FF8546
:10207000E05CFF4F20813181E054F0402F5F3F4F03
:102080002F733070DF01AE5BBF4F8D919C91119724
:1020900028173907D1F3E05CFF4F80819181E0542C
:1020A000F040E80FF91F6083EE85FF85E05CFF4F8D
:1020B00031832083EE89FF89208181E090E00F8CBD
:1020C00002C0880F991F0A94E2F7282B208381E031
:1020D00089A3EC89FD8980818064808381E090E020
:1020E000DF91CF9108951092A2031092A10388EE80
:1020F00093E0A0E0B0E08093A3039093A403A093A7
:10210000A503B093A60388E491E09093A003809385
:102110009F0387E193E09093AC038093AB038BE53F
:1021200093E09093AE038093AD0385EC90E09093A1
:10213000B0038093AF0384EC90E09093B20380935C
:10214000B10380EC90E09093B4038093B30381ECEF
:1021500090E09093B6038093B50382EC90E0909367
:10216000B8038093B70386EC90E09093BA03809312
:10217000B90384E08093BB0383E08093BC0387E0D2
:102180008093BD0385E08093BE0381E08093BF030D
:102190000895CF93DF930E9449130E946A09C4EF08
:1021A000DEE00E94290B2097E1F30E94F40EF9CFA4
:1021B000CF92DF92EF92FF920F931F93CF93DF9313
:1021C0007C016B018A01C0E0D0E00FC0D6016D91A7
:1021D0006D01D701ED91FC910190F081E02DC701D7
:1021E0000995C80FD91F015010400115110571F74D
:1021F000CE01DF91CF911F910F91FF90EF90DF9073
:10220000CF900895DC01ED91FC910190F081E02DDB
:1022100009950895EF92FF920F931F938C01DC01B3
:10222000ED91FC910190F081E02D6DE009957C012C
:10223000D801ED91FC910190F081E02DC8016AE098
:1022400009959C012E0D3F1DC9011F910F91FF9013
:10225000EF900895CF93DF93EC016115710519F4A8
:1022600020E030E00FC0DB010D900020E9F711976E
:10227000A61BB70BE881F9810280F381E02DAD0147
:1022800009959C01C901DF91CF9108954F925F920A
:102290007F928F929F92AF92BF92CF92DF92EF92F6
:1022A000FF920F931F93DF93CF93CDB7DEB7A19724
:1022B0000FB6F894DEBF0FBECDBF2C01742ECB013C
:1022C000223008F42AE019A231E2C32ED12CCC0E20
:1022D000DD1E822E9924AA24BB24672D752FA5010B
:1022E00094010E94111879018A01C801B701A50162
:1022F00094010E94DF17472D461B0894C108D1089E
:102300004A3014F4405D01C0495CF6014083E11499
:10231000F1040105110521F07E2C5F2DC801DDCFF0
:10232000C201B6010E942A11A1960FB6F894DEBF31
:102330000FBECDBFCF91DF911F910F91FF90EF9016
:10234000DF90CF90BF90AF909F908F907F905F90E5
:102350004F900895DC012115310541F4ED91FC9178
:102360000190F081E02D642F099508950E94461197
:102370000895CF92DF92EF92FF920F931F93CF9326
:10238000DF93EC016A017B012115310541F4E881FD
:10239000F9810190F081E02D642F09951FC02A304A
:1023A0003105D1F477FF17C0E881F9810190F08100
:1023B000E02D6DE209958C0144275527BA014C198F
:1023C0005D096E097F09CE012AE00E94461198013D
:1023D000280F391F04C02AE00E9446119C01C90140
:1023E000DF91CF911F910F91FF90EF90DF90CF90F1
:1023F00008950E942A1108957F928F929F92AF9222
:10240000BF92CF92DF92EF92FF920F931F93CF93E1
:10241000DF934C017A018B01722ECB01BA01A80126
:1024200097010E94DB17882321F0C4016FE171E05E
:1024300021C0C0E0D0E057016801E894D7F8C60198
:10244000B5012FEF3FEF4FE75FE70E94DB178823CF
:1024500051F4C601B5012FEF3FEF4FE75FE70E9450
:102460002516181614F0C1E0D0E0219739F0C40108
:1024700063E271E00E942A11EC0193C0C801B70128
:102480002FEF3FEF4FE75FE40E947417181654F0E8
:10249000C801B7012FEF3FEF4FE75FEC0E94251611
:1024A000882324F4C40167E271E0E4CFC801B701D6
:1024B00020E030E040E050E00E94251687FD03C098
:1024C000C0E0D0E00EC0D401ED91FC910190F0810C
:1024D000E02DC4016DE20995EC0117FB109517F989
:1024E000109520E030E040E05FE3DD240BC0CA013E
:1024F000B90120E030E040E251E40E9429169B013E
:10250000AC01D394D71498F3C801B7010E94C11548
:102510005B016C010E9496167B018C01C401B8011D
:10252000A7012AE030E00E94AA11C80FD91F772026
:1025300039F0C4016BE271E00E942A11C80FD91F63
:10254000C801B7010E94C2169B01AC01C601B501CA
:102550000E94C01524C020E030E040E251E40E9417
:1025600078177B018C010E9491165B016C01CC24D1
:10257000B7FCC094DC2CC401B601A5012AE030E010
:102580000E94B911C80FD91FC601B5010E94C41617
:102590009B01AC01C801B7010E94C0157A94772055
:1025A000D1F6CE01DF91CF911F910F91FF90EF9067
:1025B000DF90CF90BF90AF909F908F907F900895C5
:1025C000EF92FF920F931F937C010E94FC118C01EC
:1025D000C7010E940A11080F191FC8011F910F910E
:1025E000FF90EF9008951F920F920FB60F92112453
:1025F0002F933F938F939F93AF93BF938091C50386
:102600009091C603A091C703B091C8033091C9034C
:102610000196A11DB11D232F2D5F2D3720F02D57C1
:102620000196A11DB11D2093C9038093C50390930A
:10263000C603A093C703B093C8038091C1039091D0
:10264000C203A091C303B091C4030196A11DB11DA3
:102650008093C1039093C203A093C303B093C403B8
:10266000BF91AF919F918F913F912F910F900FBE8E
:102670000F901F9018958FB7F8942091C503309153
:10268000C6034091C7035091C8038FBFB901CA0167
:102690000895789484B5826084BD84B5816084BDDA
:1026A00085B5826085BD85B5816085BDEEE6F0E0CB
:1026B000808181608083E1E8F0E010828081826027
:1026C0008083808181608083E0E8F0E080818160A8
:1026D0008083E1EBF0E0808184608083E0EBF0E0D8
:1026E000808181608083EAE7F0E08081846080837C
:1026F0008081826080838081816080838081806826
:1027000080831092C1000895809333010895982F1B
:102710008E3008F09E509770809133018295880F1B
:10272000880F807C892B80937C0080917A00806464
:1027300080937A0080917A0086FDFCCF209178000A
:1027400040917900942F80E030E0282B392BC9018B
:102750000895CF93DF93482F50E0CA018A5C9E4FC3
:10276000FC0134914E5D5E4FFA018491882369F13A
:1027700090E0880F991FFC01EC5FFE4FA591B4918A
:10278000FC01E25FFE4FC591D491662351F42FB74F
:10279000F8948C91932F909589238C938881892329
:1027A0000BC0623061F42FB7F8948C91932F909501
:1027B00089238C938881832B88832FBF06C09FB782
:1027C000F8948C91832B8C939FBFDF91CF910895C8
:1027D000833071F0843028F48130A1F0823021F50B
:1027E00014C08630B1F08730D1F08430E9F404C0F1
:1027F000809180008F7703C0809180008F7D8093CF
:102800008000089584B58F7702C084B58F7D84BD24
:1028100008958091B0008F778093B00008958091E3
:10282000B0008F7D8093B0000895FF920F931F93A7
:10283000F62E482F50E0CA01865B9E4FFC01249182
:10284000CA018A5C9E4FFC0114914E5D5E4FFA01F5
:1028500004910023C9F0222319F0822F0E94E8136B
:10286000E02FF0E0EE0FFF1FE25FFE4FA591B49165
:102870009FB7F894FF2021F48C911095812302C01A
:102880008C91812B8C939FBF1F910F91FF90089586
:102890000F931F93482F50E0CA01865B9E4FFC01A7
:1028A0002491CA018A5C9E4FFC0104914E5D5E4FEB
:1028B000FA011491112319F420E030E015C022230D
:1028C00019F0822F0E94E813812F90E0880F991F42
:1028D000885E9E4FFC01A591B4918C9120E030E080
:1028E000802311F021E030E0C9011F910F9108957C
:1028F0000F931F93CF93DF93FC018B01411551057B
:10290000F9F061157105E1F0848195812817390787
:1029100018F0FB01108214C041505040EC01C21B62
:10292000D30B4C175D0708F4EA0160817181620FD7
:10293000731FC801AE010E940303C00FD11F18828C
:10294000DF91CF911F910F9108950F931F93CF9314
:10295000DF93EC018B016F5F7F4F888199810E942B
:10296000FC01009711F480E005C0998388831B83E4
:102970000A8381E0DF91CF911F910F910895CF934A
:10298000DF93EC0188819981892B29F08A819B81D1
:102990008617970760F4CE010E94A514882341F0A2
:1029A0008C819D81892B19F4E881F981108281E065
:1029B000DF91CF910895EF92FF920F931F93CF93E2
:1029C000DF93EC017B016C817D81E114F104C1F0A6
:1029D0004115510599F08A01060F171FB8010E9491
:1029E000BF14882369F0888199812C813D81820FF1
:1029F000931FB7010E94FC021D830C8381E001C07C
:102A000080E0DF91CF911F910F91FF90EF9008959B
:102A1000DF93CF9300D0CDB7DEB769831A82BE01B2
:102A20006F5F7F4F41E050E00E94DB140F900F90EA
:102A3000CF91DF910895CF93DF93EC018881998145
:102A4000009711F00E94A401198218821D821C8235
:102A50001B821A82DF91CF9108950F931F93182F35
:102A6000092F0E940815882321F4812F902F0E949E
:102A70001B15812F902F1F910F910895EF92FF92B8
:102A80000F931F93CF93DF93EC017B018A01BA016F
:102A90000E94BF14882321F4CE010E941B1507C099
:102AA0001D830C8388819981B7010E94FC02CE01AD
:102AB000DF91CF911F910F91FF90EF900895CF93E9
:102AC000DF93EC01198218821B821A821D821C82FC
:102AD0001E826115710551F0DB010D900020E9F7B0
:102AE0001197A61BB70BAD010E943E15DF91CF9148
:102AF00008950F931F93182F092F6115710559F031
:102B0000DB010D900020E9F71197A61BB70BAD0173
:102B10000E943E1502C00E941B15812F902F1F910D
:102B20000F910895CF93DF93EC01FB018617970770
:102B300061F0608171816115710529F044815581D1
:102B40000E943E1502C00E941B15CE01DF91CF915D
:102B50000895FC0111821082138212821582148260
:102B600016820E9492150895FC01808191810E9435
:102B7000A4010895FC01808191810E94A40108951F
:102B80005058BB27AA270ED075C166D130F06BD143
:102B900020F031F49F3F11F41EF45BC10EF4E09578
:102BA000E7FB51C1E92F77D180F3BA1762077307AA
:102BB0008407950718F071F49EF58FC10EF4E09527
:102BC0000B2EBA2FA02D0B01B90190010C01CA01E7
:102BD000A0011124FF27591B99F0593F50F4503E92
:102BE00068F11A16F040A22F232F342F4427585F84
:102BF000F3CF469537952795A795F0405395C9F79C
:102C00007EF41F16BA0B620B730B840BBAF0915053
:102C1000A1F0FF0FBB1F661F771F881FC2F70EC0F2
:102C2000BA0F621F731F841F48F4879577956795C5
:102C3000B795F7959E3F08F0B3CF9395880F08F0AE
:102C40009927EE0F979587950895D9D008F481E0DC
:102C500008950CD00FC107D140F0FED030F021F420
:102C60005F3F19F0F0C0511139C1F3C014D198F38E
:102C70009923C9F35523B1F3951B550BBB27AA27FD
:102C800062177307840738F09F5F5F4F220F331F6F
:102C9000441FAA1FA9F333D00E2E3AF0E0E830D03B
:102CA00091505040E695001CCAF729D0FE2F27D03E
:102CB000660F771F881FBB1F261737074807AB070C
:102CC000B0E809F0BB0B802DBF01FF2793585F4F81
:102CD0002AF09E3F510568F0B6C000C15F3FECF39B
:102CE000983EDCF3869577956795B795F7959F5F46
:102CF000C9F7880F911D9695879597F90895E1E09A
:102D0000660F771F881FBB1F621773078407BA07F8
:102D100020F0621B730B840BBA0BEE1F88F7E09553
:102D2000089504D06894B111D9C00895BCD088F03A
:102D30009F5790F0B92F9927B751A0F0D1F0660FA7
:102D4000771F881F991F1AF0BA95C9F712C0B130C2
:102D500081F0C3D0B1E00895C0C0672F782F8827D5
:102D6000B85F39F0B93FCCF3869577956795B39501
:102D7000D9F73EF490958095709561957F4F8F4F70
:102D80009F4F0895E89409C097FB3EF49095809575
:102D9000709561957F4F8F4F9F4F9923A9F0F92F21
:102DA00096E9BB279395F695879577956795B7959F
:102DB000F111F8CFFAF4BB0F11F460FF1BC06F5F85
:102DC0007F4F8F4F9F4F16C0882311F096E911C097
:102DD000772321F09EE8872F762F05C0662371F0B8
:102DE00096E8862F70E060E02AF09A95660F771FCC
:102DF000881FDAF7880F9695879597F90895990FA8
:102E00000008550FAA0BE0E8FEEF16161706E807B4
:102E1000F907C0F012161306E407F50798F0621BD5
:102E2000730B840B950B39F40A2661F0232B242BAA
:102E3000252B21F408950A2609F4A140A6958FEFC9
:102E4000811D811D089597F99F6780E870E060E01B
:102E500008959FEF80EC089500240A941616170633
:102E600018060906089500240A941216130614067B
:102E700005060895092E0394000C11F4882352F0DE
:102E8000BB0F40F4BF2B11F460FF04C06F5F7F4F96
:102E90008F4F9F4F089557FD9058440F551F59F07D
:102EA0005F3F71F04795880F97FB991F61F09F3F37
:102EB00079F087950895121613061406551FF2CF60
:102EC0004695F1DF08C0161617061806991FF1CFB0
:102ED00086957105610508940895E894BB276627D7
:102EE0007727CB0197F908958ADF08F48FEF0895CB
:102EF0000BD0C0CFB1DF28F0B6DF18F0952309F072
:102F0000A2CFA7CF1124EACFC6DFA0F3959FD1F3BC
:102F1000950F50E0551F629FF001729FBB27F00D87
:102F2000B11D639FAA27F00DB11DAA1F649F6627DC
:102F3000B00DA11D661F829F2227B00DA11D621F2B
:102F4000739FB00DA11D621F839FA00D611D221FE5
:102F5000749F3327A00D611D231F849F600D211DC9
:102F6000822F762F6A2F11249F5750408AF0E1F06C
:102F700088234AF0EE0FFF1FBB1F661F771F881FB5
:102F800091505040A9F79E3F510570F05CCFA6CFFD
:102F90005F3FECF3983EDCF3869577956795B795A0
:102FA000F795E7959F5FC1F7FE2B880F911D9695CA
:102FB000879597F9089523DF880B990B0895629FF1
:102FC000D001739FF001829FE00DF11D649FE00D21
:102FD000F11D929FF00D839FF00D749FF00D659F82
:102FE000F00D9927729FB00DE11DF91F639FB00D81
:102FF000E11DF91FBD01CF011124089597FB092E92
:1030000007260AD077FD04D02ED006D000201AF46F
:10301000709561957F4F0895F6F7909581959F4F34
:103020000895A1E21A2EAA1BBB1BFD010DC0AA1F09
:10303000BB1FEE1FFF1FA217B307E407F50720F021
:10304000A21BB30BE40BF50B661F771F881F991F9C
:103050001A9469F760957095809590959B01AC01E5
:10306000BD01CF010895AA1BBB1B51E107C0AA1FD8
:10307000BB1FA617B70710F0A61BB70B881F991F19
:103080005A95A9F780959095BC01CD010895EE0F52
:10309000FF1F0590F491E02D0994911106C0803234
:1030A00019F089508550D0F70895992788270895F9
:1030B0002F923F924F925F926F927F928F929F9248
:1030C000AF92BF92CF92DF92EF92FF920F931F9336
:1030D000CF93DF93CDB7DEB7CA1BDB0B0FB6F894E7
:1030E000DEBF0FBECDBF09942A88398848885F8427
:1030F0006E847D848C849B84AA84B984C884DF8098
:10310000EE80FD800C811B81AA81B981CE0FD11D7B
:103110000FB6F894DEBF0FBECDBFED01089511E0EC
:10312000CEE9D1E004C0FE010E9449182296C03ABF
:08313000D107C9F7F894FFCFA5
:1031380000636254656D70416D6269656E746543C4
:10314800656E746967726164694176673A20006EDA
:10315800616E00696E66006F7666002E002000D0F2
:103168000300000100000000550DD8103B0D1A0D9A
:10317800180E070E000000003310D810C90FFA0F00
:04318800DA0F231027
:00000001FF
